:100000000C9462000C948A000C948A000C948A0070
:100010000C948A000C948A000C948A000C948A0038
:100020000C948A000C948A000C948A000C948A0028
:100030000C948A000C948A000C948A000C948A0018
:100040000C94D3040C948A000C9437040C9411047F
:100050000C948A000C948A000C948A000C948A00F8
:100060000C941D050C948A00000000002500280057
:100070002B0000000000240027002A0004040404D0
:100080000404040402020202020203030303030342
:10009000010204081020408001020408102001021F
:1000A00004081020000000002300260029000000A2
:1000B0000008000201000003040700000000000027
:1000C00000001F0711241FBECFEFD8E0DEBFCDBF59
:1000D00012E0A0E0B1E0E2E1F4E102C005900D928F
:1000E000A032B107D9F723E0A0E2B2E001C01D922F
:1000F000AB37B207E1F710E0C2E6D0E004C02197C9
:10010000FE010E94FC09C136D107C9F70E946507AC
:100110000C94070A0C94000040E061E08FE193E04A
:100120000E9495068BE39FE10197F1F70895CF9325
:10013000DF93CDB7DEB728970FB6F894DEBF0FBEBA
:10014000CDBF98E0E1E0F1E0DE01119601900D9263
:100150009A95E1F790912703981710F48FEF890F84
:10016000FE013196E80FF11DE80FF11D6081606816
:1001700040E08FE193E028960FB6F894DEBF0FBE03
:10018000CDBFDF91CF910C949506CF93DF93109262
:1001900021021092200210924A0210926C020E94D8
:1001A0004B061092240380912903823018F098E0C6
:1001B000909324038093270362E370E080E090E053
:1001C0000E94990460912A038FE193E00E946906DE
:1001D00060E38FE193E00E947C06CBE4D6E4CE019D
:1001E0000197F1F760E38FE193E00E947C0621978D
:1001F000F1F760E38FE193E00E947C0683E592E0F3
:100200000197F1F760E28FE193E00E947C06609134
:100210002403606240E08FE193E00E94950684E051
:100220008093250340E06CE08FE193E00E94950607
:100230000E948C0082E08093260340E066E08FE11C
:1002400093E00E94950640E062E08FE193E00E9417
:1002500095068BE39FE10197F1F7DF91CF91089528
:10026000CF93DF93BC018DE692E00E94FA03EC018C
:100270006CE471E08DE692E00E94FA038C0F9D1F02
:10028000DF91CF9108954F925F926F927F92EF929C
:10029000FF920F931F93CF93DF93CDB7DEB7A19754
:1002A0000FB6F894DEBF0FBECDBF7C01FA01CB01C3
:1002B00019A2223008F42AE08E010F5D1F4F422E52
:1002C000512C612C712CBF01A30192010E94DA090B
:1002D000F901CA01015011096A3014F4605D01C0CE
:1002E000695CD8016C93232B242B252B61F7B80173
:1002F000C7010E94FA03A1960FB6F894DEBF0FBEA5
:10030000CDBFDF91CF911F910F91FF90EF907F9024
:100310006F905F904F9008950E94020A20916C02A6
:1003200090916B02213208F04AC0809148028111FD
:10033000FCCF32E03093480231E0309347023FEF88
:10034000309346021092450220934402ABE4B2E09F
:1003500044E252E0FA013E2F341B321718F43D916B
:100360003193F9CF1092230220912302990F922BFF
:100370009093230290912202913061F41092220214
:10038000909123029093BB009091BC0093FDF8CF15
:1003900095EC01C095EE9093BC009091480292308C
:1003A000E1F3909146029F3F79F0809146028032BE
:1003B00041F080914602803331F084E005C081E055
:1003C00003C082E001C083E010924A0210926C02E6
:1003D000109249020895CF92DF92EF92FF920F930D
:1003E0001F93CF93DF936C017A018B01C0E0D0E0C3
:1003F000CE15DF0589F0D8016D918D01D601ED9103
:10040000FC910190F081E02DC6010995892B11F432
:100410007E0102C02196ECCFC701DF91CF911F91E1
:100420000F91FF90EF90DF90CF900895FC01538DD6
:10043000448D252F30E0842F90E0821B930B5417BE
:1004400010F0CF96089501970895FC01918D828D4B
:10045000981761F0828DDF01A80FB11D5D968C9118
:10046000928D9F5F9F73928F90E008958FEF9FEF23
:100470000895FC01918D828D981731F0828DE80FDF
:10048000F11D858D90E008958FEF9FEF0895FC0199
:10049000918D228D892F90E0805C9F4F821B910966
:1004A0008F73992708958DE692E00E94470221E01C
:1004B000892B09F420E0822F0895FC01848DDF014F
:1004C000A80FB11DA35ABF4F2C91848D90E00196C7
:1004D0008F739927848FA689B7892C93A089B189B6
:1004E0008C9180648C93938D848D981306C00288C0
:1004F000F389E02D80818F7D80830895EF92FF92B4
:100500000F931F93CF93DF93EC0181E0888F9B8D36
:100510008C8D981305C0E889F989808185FD24C0F8
:10052000F62E0B8D10E00F5F1F4F0F731127E02E7B
:100530008C8DE8120CC00FB607FCFACFE889F98958
:10054000808185FFF5CFCE010E945D02F1CF8B8DBA
:10055000FE01E80FF11DE35AFF4FF0820B8FEA898D
:10056000FB898081806207C0EE89FF896083E8890A
:10057000F98980818064808381E090E0DF91CF9170
:100580001F910F91FF90EF900895CF93DF93EC01AF
:10059000888D8823C9F0EA89FB89808185FD05C0A3
:1005A000A889B9898C9186FD0FC00FB607FCF5CFDD
:1005B000808185FFF2CFA889B9898C9185FFEDCF25
:1005C000CE010E945D02E7CFDF91CF91089580E0D8
:1005D00090E0892B29F00E94530281110C940000B5
:1005E0000895833081F028F4813099F08230A1F0B1
:1005F00008958730A9F08830B9F08430D1F4809123
:1006000080008F7D03C0809180008F778093800071
:10061000089584B58F7702C084B58F7D84BD089519
:100620008091B0008F7703C08091B0008F7D809360
:10063000B00008953FB7F8948091770390917803C4
:10064000A0917903B0917A0326B5A89B05C02F3FEE
:1006500019F00196A11DB11D3FBFBA2FA92F982FE8
:100660008827820F911DA11DB11DBC01CD0142E063
:10067000660F771F881F991F4A95D1F7089585ED5A
:100680008093BC008091BC0084FDFCCF1092480296
:10069000089540914D03262F30E0240F311D213263
:1006A0003105DCF4209148022430C9F4FC0180E0DB
:1006B00090E0861758F430914D032191DC01A55D3F
:1006C000BC4FA30FB11D2C930196F3CF80914D0326
:1006D000680F60934D0380E0089581E0089582E003
:1006E0000895089581E090E0309121022091200248
:1006F000321710F480E090E091958195910908956A
:100700008091210290912002891730F48F5F8093AD
:10071000210280E090E008958FEF9FEF089580918F
:10072000200290E020912102821B91090895CF922E
:10073000DF92EF92FF920F931F93CF93DF937C0191
:10074000262F972F8A0180914902882391F0C62F86
:10075000D72F6E01C40ED51ECC15DD0571F0699141
:10076000D701ED91FC910190F081E02DC701099531
:10077000F3CF642F822F0E944903C801DF91CF91EC
:100780001F910F91FF90EF90DF90CF900895CF933E
:10079000DF931F92CDB7DEB76983209149022223F0
:1007A000D1F020916C02203240F021E030E0FC01D9
:1007B0003383228380E090E015C080914A02E82FC5
:1007C000F0E0E55BFD4F998190838F5F80934A0253
:1007D00080936C0205C061E0CE0101960E9449033E
:1007E00081E090E00F90DF91CF910895089580E02F
:1007F00090E008956115710579F0FB0101900020EA
:10080000E9F73197AF01461B570BDC01ED91FC91E5
:100810000280F381E02D099480E090E008950C942B
:10082000FA031F920F920FB60F9211242F933F934A
:100830004F935F936F937F938F939F93AF93BF93E8
:10084000EF93FF938DE692E00E945D02FF91EF919E
:10085000BF91AF919F918F917F916F915F914F91D8
:100860003F912F910F900FBE0F901F9018951F92E0
:100870000F920FB60F9211242F938F939F93EF93A4
:10088000FF93E0917D02F0917E028081E0918302EE
:10089000F091840282FD12C09081809186028F5F68
:1008A0008F7320918702821751F0E0918602F0E069
:1008B000E359FD4F958F8093860201C08081FF919F
:1008C000EF919F918F912F910F900FBE0F901F90DE
:1008D00018951F93CF93DF93282F30E0F901E2554D
:1008E000FF4F8491F901E057FF4FD491F901E4588B
:1008F000FF4FC491CC23C9F0162F81110E94F10241
:10090000EC2FF0E0EE0FFF1FE859FF4FA591B491D7
:100910008FB7F894111105C09C91ED2FE095E92354
:1009200002C0EC91ED2BEC938FBFDF91CF911F9123
:1009300008958F929F92AF92BF92CF92DF92EF92E3
:10094000FF926B017C010E941A034B015C01C114F0
:10095000D104E104F104F1F00E941A03DC01CB019F
:1009600088199909AA09BB09883E9340A105B105D8
:1009700070F321E0C21AD108E108F10888EE880E70
:1009800083E0981EA11CB11CC114D104E104F10440
:1009900019F7DDCFFF90EF90DF90CF90BF90AF9031
:1009A0009F908F9008951F920F920FB60F9211246F
:1009B0002F933F938F939F93AF93BF938091730334
:1009C00090917403A0917503B091760330917203F6
:1009D00023E0230F2D3720F40196A11DB11D05C082
:1009E00026E8230F0296A11DB11D20937203809368
:1009F000730390937403A0937503B093760380916F
:100A0000770390917803A0917903B0917A030196CE
:100A1000A11DB11D8093770390937803A093790370
:100A2000B0937A03BF91AF919F918F913F912F9196
:100A30000F900FBE0F901F9018951F920F920FB638
:100A40000F9211242F933F934F935F936F937F9354
:100A50008F939F93AF93BF93EF93FF938091B900D0
:100A6000887F803609F49CC068F5883209F45BC041
:100A700090F4803109F454C038F4882309F4F6C0A6
:100A8000883009F44DC0F6C0883109F44CC080327A
:100A900009F45DC0EFC0803409F468C048F48033C5
:100AA00009F455C0883309F0E5C080934602D8C0E8
:100AB000803509F44FC0883509F45DC0883409F0E9
:100AC000D9C0D6C0883909F4C7C0A8F4883709F45A
:100AD00067C038F4883609F463C0803709F460C011
:100AE000C9C0883809F4B8C0803909F45FC08038BB
:100AF00009F0C0C05BC0803B09F486C038F4803A7E
:100B000009F466C0883A09F47FC0B4C0803C09F497
:100B1000A7C0883C09F4A4C0883B09F48AC0AAC0D5
:100B20008091230210C09091450280914402981751
:100B300070F5E091450281E08E0F80934502F0E070
:100B4000EC5DFD4F80818093BB0085EC86C0809377
:100B500046028EC0E091450281E08E0F80934502EF
:100B60008091BB00F0E0EC5DFD4F808390914502E9
:100B7000809144026EC0E091450281E08E0F809327
:100B800045028091BB00F0E0EC5DFD4F80838091D9
:100B9000470281116DC081E08093220284EA61C026
:100BA00083E08093480210927103CFCF809171034C
:100BB000803208F051C0E091710381E08E0F809384
:100BC00071038091BB00F0E0EF5AFC4F8083BDCFF2
:100BD00085EC8093BC0010924802809171038032B2
:100BE00030F4E0917103F0E0EF5AFC4F1082609115
:100BF000710370E0E0914F03F091500381E593E0C1
:100C000009951092710336C084E0809348021092D7
:100C10004E0310924D03E0914B03F0914C03099564
:100C200080914D03811105C081E080934D031092A6
:100C30002B03E0914E0381E08E0F80934E03F0E092
:100C4000E55DFC4F80818093BB0090914E038091C5
:100C50004D03981708F479CF85E88093BC000AC04B
:100C600085EC8093BC001092480204C010924602AA
:100C70000E943F03FF91EF91BF91AF919F918F91A0
:100C80007F916F915F914F913F912F910F900FBE88
:100C90000F901F9018951092480281E080934702B0
:100CA0001092220261E082E10E94690461E083E126
:100CB0000E946904E9EBF0E080818E7F808380816F
:100CC0008D7F808388E48093B80085E48093BC00A6
:100CD0000895FC01248131E03093490220936B0296
:100CE00010924A0210926C028385682B8AE093E08E
:100CF0000E94C7030C948E010F931F93CF938C0116
:100D0000C62F0E9469066C2F6460C8010E946906A4
:100D10006C2F6B7FC8010E94690683EC90E00197FD
:100D2000F1F7CF911F910F910895FF920F931F93A9
:100D3000CF93DF931F92CDB7DEB78C01F62E962F9F
:100D4000907F692F642BC80149830E947C0680E153
:100D5000F89EB00111244981642BC8010F90DF91E6
:100D6000CF911F910F91FF900C947C0641E00E945F
:100D7000950681E090E008958F929F92AF92BF9286
:100D8000CF92DF92EF92FF920F931F93CF93DF9357
:100D900000E411E0CDE0D1E0AC2E83E0A80EB990E4
:100DA00061E08B2D0E94690499E0E92E91E0F92E13
:100DB000C12CD12CF70121917F0130E0F901E255DE
:100DC000FF4F8491F901E057FF4F8490F901E458F7
:100DD000FF4F9490992071F081110E94F102E92D4A
:100DE000F0E0EE0FFF1FEC55FF4FA591B491EC9191
:100DF0008E22F1F4F3E0CF0ED11C8CE0C816D104A2
:100E0000C9F660E08B2D0E9469040F5F1F4FAC1282
:100E1000C6CF80910001DF91CF911F910F91FF907C
:100E2000EF90DF90CF90BF90AF909F908F900895FC
:100E3000F801EC0DFD1D808180930001DBCFEDE614
:100E4000F2E01382128288EE93E0A0E0B0E08483A7
:100E50009583A683B78324E131E03183208325EC99
:100E600030E03587248724EC30E03787268720EC74
:100E700030E0318B208B21EC30E0338B228B22EC65
:100E800030E0358B248B26EC30E0378B268B118EAF
:100E9000128E138E148EEAE0F3E0138212828483A2
:100EA0009583A683B78386E291E091838083EFE107
:100EB000F3E01382128288E391E09183808380E1E2
:100EC000818782E0828713860895789484B5826052
:100ED00084BD84B5816084BD85B5826085BD85B5DE
:100EE000816085BD80916E00816080936E0010925C
:100EF00081008091810082608093810080918100D7
:100F00008160809381008091800081608093800067
:100F10008091B10084608093B1008091B0008160C5
:100F20008093B00080917A00846080937A008091F1
:100F30007A00826080937A0080917A008160809349
:100F40007A0080917A00806880937A001092C100C4
:100F5000E0917D02F0917E0282E08083E09179024F
:100F6000F0917A021082E0917B02F0917C028FEC8A
:100F7000808310928502E0918102F091820286E0E6
:100F80008083E0917F02F091800280818061808384
:100F9000E0917F02F0918002808188608083E091FF
:100FA0007F02F0918002808180688083E0917F02DF
:100FB000F091800280818F7D8083ADE0B1E033E0ED
:100FC0003A0F8D9190E0FC01E057FF4F2491FC0116
:100FD000E458FF4F8491882399F090E0880F991F7F
:100FE000FC01EE58FF4FC591D491FC01E859FF4F29
:100FF000859194918FB7F894E881E22BE8838FBFB5
:101000003A13DFCFA9E0B1E034E03A0F8D9190E0E0
:10101000FC01E057FF4F2491FC01E458FF4F8491FD
:101020008823C9F090E0880F991FFC01EE58FF4F0C
:10103000C591D491FC01E859FF4F459154919FB758
:10104000F8948881E22FE0958E238883EA018881D5
:10105000E823E8839FBF3A13D9CF60E088E00E947D
:10106000690460E089E00E94690460E08AE00E940F
:1010700069048FE491E00E943001109221021092E5
:1010800020020E944B0688E0C82ED12CE12CF12CC6
:10109000C1E0C0934902C0926B0210924A021092C2
:1010A0006C020E948E01811127C066E671E08DE618
:1010B00092E00E940F042AE0B701A6018DE692E0BB
:1010C0000E94430165E771E08DE692E00E940F0403
:1010D00020E1B701A6018DE692E00E9443018BE773
:1010E00091E00E943001E0911603EF5FE093160358
:1010F000F0E0EA5EFC4FC082DFEFCD1ADD0AED0AB8
:10110000FD0A88E7C816D104E104F10411F68DE761
:1011100091E00E94300163E871E08DE692E00E9468
:101120000F044091160350E060E070E02AE08DE685
:1011300092E00E9443018AE891E00E943001C0E001
:1011400080911603C817D8F468E771E08DE692E045
:101150000E940F04EC2FF0E0E95EFC4F408150E06C
:1011600060E070E020E18DE692E00E9443016CE4D3
:1011700071E08DE692E00E94FA03CF5FE1CF8091AB
:101180001703809323030E94C50080E00E9497000C
:1011900066E971E08FE193E00E940F04409116032D
:1011A00050E060E070E02AE08FE193E00E944301AC
:1011B00060EA71E08FE193E00E940F0468EE73E053
:1011C00080E090E00E9499040E948C00F12CCF2DC9
:1011D000D0E08091160390E0C817D9073CF5FE01D6
:1011E000E95EFC4F8081809323030E94C50080E06C
:1011F0000E94970066EA71E08FE193E00E940F047D
:10120000AE014F5F5F4F052E000C660B770B2AE097
:101210008FE193E00E94430164EF71E080E090E091
:101220000E9499040E948C00F394D1CF80911703FF
:10123000809323030E94C5000E948C0080E00E94DE
:10124000970065EB71E08FE193E00E940F0481E06D
:101250000E94970064EC71E08FE193E00E940F041C
:10126000809100018E3629F40E94BC068093000113
:10127000F7CF0E948C00CAE2809100018A3229F5E2
:1012800080911703809323030E94C5000E948C0065
:1012900080E00E94970065EB71E08FE193E00E948F
:1012A0000F0481E00E94970064EC71E08FE193E00D
:1012B0000E940F04809100018A3229F40E94BC062A
:1012C00080930001F7CF0E948C0030910001832FA2
:1012D000032E000C990B41E03E3609F440E021E07A
:1012E0003A3209F420E0242309F12091160330E07A
:1012F000AC014053510924173507C4F480E00E9423
:10130000970062ED71E08FE193E00E940F0468EEB8
:1013100073E080E090E00E94990463EE71E08FE159
:1013200093E00E940F04C093000141C0FC01EA5108
:10133000FD4F8081809323030E94C5000E948C0092
:1013400080E00E94970063EF71E08FE193E00E94DC
:101350000F0481E00E94970061E072E08FE193E06A
:101360000E940F046CED75E080E090E00E9499040B
:101370000E948C0080E00E94970069E072E08FE19B
:1013800093E00E940F0481E00E94970062E172E006
:101390008FE193E00E940F04809100018A3229F0CE
:1013A0000E94BC0680930001F7CF0E948C000E942F
:1013B000E70262CFA1E21A2EAA1BBB1BFD010DC0E2
:1013C000AA1FBB1FEE1FFF1FA217B307E407F507F5
:1013D00020F0A21BB30BE40BF50B661F771F881FD1
:1013E000991F1A9469F760957095809590959B0167
:1013F000AC01BD01CF010895EE0FFF1F0590F491E0
:10140000E02D099481E090E0F8940C94070AF89498
:02141000FFCF0C
:101412006E00004000140054000405060708090A83
:10142200000000007E02EB011602C50247022502FF
:10143200390200000000C7039703F70371038F030B
:101442008003720300000000B606EB01F703F60307
:101452003132333435363738392A30230D0A0049D0
:101462003243207363616E6E65722C207363616E0A
:10147200696E672E2E00666F756E642061646472F9
:101482006573733A002020283078002900446F6E7B
:10149200652E00466F756E64200020646576696370
:1014A200652873292E00796F7520686176652000A2
:1014B20073206C63640073637265656E206E756D74
:1014C20062657220007072657373206B6579207497
:1014D2006F20200073656C656374207363726565A9
:1014E2006E0073637265656E206E6F7420666F7531
:1014F2006E64007072657373206B65792061676931
:10150200616E0069276D2073656C65637465642E76
:101512000068692075736572007072657373202AA2
:10152200200020746F20726573656C65637400001F
:107E0000112484B714BE81FFF0D085E080938100F7
:107E100082E08093C00088E18093C10086E0809377
:107E2000C20080E18093C4008EE0C9D0259A86E02C
:107E300020E33CEF91E0309385002093840096BBD3
:107E4000B09BFECF1D9AA8958150A9F7CC24DD24C4
:107E500088248394B5E0AB2EA1E19A2EF3E0BF2EE7
:107E6000A2D0813461F49FD0082FAFD0023811F036
:107E7000013811F484E001C083E08DD089C08234E0
:107E800011F484E103C0853419F485E0A6D080C0E4
:107E9000853579F488D0E82EFF2485D0082F10E0AE
:107EA000102F00270E291F29000F111F8ED06801E7
:107EB0006FC0863521F484E090D080E0DECF843638
:107EC00009F040C070D06FD0082F6DD080E0C81688
:107ED00080E7D80618F4F601B7BEE895C0E0D1E017
:107EE00062D089930C17E1F7F0E0CF16F0E7DF06D8
:107EF00018F0F601B7BEE89568D007B600FCFDCFD4
:107F0000A601A0E0B1E02C9130E011968C91119780
:107F100090E0982F8827822B932B1296FA010C0160
:107F200087BEE89511244E5F5F4FF1E0A038BF0790
:107F300051F7F601A7BEE89507B600FCFDCF97BE46
:107F4000E89526C08437B1F42ED02DD0F82E2BD052
:107F50003CD0F601EF2C8F010F5F1F4F84911BD097
:107F6000EA94F801C1F70894C11CD11CFA94CF0C13
:107F7000D11C0EC0853739F428D08EE10CD085E9AC
:107F80000AD08FE07ACF813511F488E018D01DD067
:107F900080E101D065CF982F8091C00085FFFCCF94
:107FA0009093C60008958091C00087FFFCCF809118
:107FB000C00084FD01C0A8958091C6000895E0E648
:107FC000F0E098E1908380830895EDDF803219F02E
:107FD00088E0F5DFFFCF84E1DECF1F93182FE3DFCA
:107FE0001150E9F7F2DF1F91089580E0E8DFEE27F6
:047FF000FF270994CA
:027FFE00040479
:0400000300007E007B
:00000001FF
